:02000002D0002C
:1040000000400D00CC620D00000006000C00050110
:084010000401BD0B00000000DB
:0440180034600D0003
:10401C0009480A49884208B505D0094A824202D0AB
:10402C00121A01F083FF0748074A0021121A01F007
:10403C008BFF014808BD00BFC8E503203C620D00A2
:10404C0030E6032030E60320F0E7032070B5074E7E
:10405C00074C00F0C1FDA41BA4080025A54200D10B
:10406C0070BD56F8043B98470135F7E700620D0028
:10407C0024620D0000F098B808B500F0CFF8BDE848
:10408C00084000F06BBD00F099BA00F09FBA0078C0
:10409C00B0FA80F04009704701230370704708B5EF
:1040AC000121072001F0C1F87D2000F01DFD002149
:1040BC00072001F0BAF87D2000F016FDF0E708B5F6
:1040CC000021022000F0F6F9BDE8084000F002B92A
:1040DC0008B50021022000F0EDF9BDE8084000F021
:1040EC0001B9000070B5184E88B00A2501F058FFD0
:1040FC0031460446684600F0F2FB94FBF5F005FBF4
:10410C001040013001F046FA41EC100B062104A8D6
:10411C0000F01EFC04A9684600F045FC04A800F061
:10412C0093FB00F05FFEFFF7CAFF00F05BFE009907
:10413C0000F099FCFFF7CCFF4FF47A7000F0D4FC40
:10414C00684600F081FBD1E748600D0030B5144C97
:10415C00144D89B02368294601336846236000F06A
:10416C00BEFB0A22216804A800F0DFFB04A9684604
:10417C0000F019FC04A800F067FB00F033FEFFF719
:10418C009EFF00F02FFE009900F06DFCFFF7A0FFE2
:10419C004FF4FA7000F0A8FC684600F055FBD9E724
:1041AC0034E603205A600D0037B500F01BFE4FF4C7
:1041BC00165100F00BFE00244FF4806501210720FE
:1041CC0001F022F8CDE900450B4B0C490C480222BA
:1041DC0000F068F8CDE900450A4B0B490B48022268
:1041EC0000F060F8CDE90045094B0A490A48022263
:1041FC0000F058F803B030BDF1400D006C600D00BC
:10420C0038E6032059410D0076600D003CE6032092
:10421C00AB400D0080600D0040E6032008B500F0B7
:10422C00E1FDFFF74CFFFFF753FFF8E700210120FA
:10423C0000F038B908B5024B1B689B68019308BDA8
:10424C006802030008B5024B1B68DB68019308BDCC
:10425C006802030008B5024B1B689B68019308BDFC
:10426C002C02030008B5024B1B68DB68019308BDE8
:10427C002C02030008B5024B1B681B69019308BD97
:10428C002C02030008B5024B1B685B68019308BD48
:10429C001802030008B5024B1B685B69019308BD4B
:1042AC001802030008B5024B1B685B68019308BD3C
:1042BC004802030008B5024B1B685B6C019308BDF8
:1042CC004802030008B5024B1B689B6C019308BDA8
:1042DC004802030008B5024B1B68DB6C019308BD58
:1042EC004802030008B5024B1B685B6D019308BDC7
:1042FC004802030008B5024B1B685B69019308BDBB
:10430C006402030008B5024B1B681B68019308BDCF
:10431C003C02030008B5024B1B68DB68019308BD27
:10432C003C02030008B5024B1B681B69019308BDD6
:10433C003C02030008B5024B1B685B69019308BD86
:10434C003C02030008B5024B1B689B69019308BD36
:10435C003C02030008B5024B1B68DB69019308BDE6
:10436C003C02030008B5024B1B681B6A019308BD95
:10437C003C02030008B5024B1B689B6A019308BD05
:10438C003C02030008B5024B1B681B6A019308BD75
:10439C002802030008B5024B1B685B6A019308BD39
:1043AC002802030008B5024B1B689B6A019308BDE9
:1043BC002802030008B5024B1B68DB6A019308BD99
:1043CC002802030008B5024B1B681B6B019308BD48
:1043DC002802030008B5024B1B685B6B019308BDF8
:1043EC002802030008B5024B1B681B6C019308BD27
:1043FC002802030008B5024B1B68DB69019308BD5A
:10440C003002030008B5024B1B681B6A019308BD00
:10441C003002030008B5024B1B681B68019308BDF2
:10442C004C02030008B5024B1B685B68019308BD86
:10443C004C02030008B5024B1B681B69019308BDB5
:10444C004C02030008B5024B1B685B69019308BD65
:10445C004C02030008B5024B1B689B69019308BD15
:10446C004C02030008B5024B1B68DB69019308BDC5
:10447C004C02030008B5024B1B681B6A019308BD74
:10448C004C02030008B5024B1B685B68019308BD26
:10449C002002030008B5024B1B685B69019308BD41
:1044AC002002030008B5024B1B68DB6A019308BDB0
:1044BC002002030008B5024B1B685B6B019308BD1F
:1044CC002002030008B5034B1B68D3F88830019316
:1044DC0008BD00002002030008B5034B1B68D3F88D
:1044EC009430019308BD00002002030008B5024B74
:1044FC001B685B68019308BD4002030008B5024BC2
:10450C001B689B68019308BD4002030008B5024B71
:10451C001B68DB68019308BD4002030008B5024B21
:10452C001B681B69019308BD4002030008B5024BD0
:10453C001B685B69019308BD4002030008B5024B80
:10454C001B689B69019308BD4002030008B5024B30
:10455C001B68DB69019308BD4002030008B5024BE0
:10456C001B681B6A019308BD4002030008B5024B8F
:10457C001B681B6B019308BD4002030008B5024B7E
:10458C001B685B6B019308BD4002030008B5024B2E
:10459C001B681B6C019308BD4002030008B5024B5D
:1045AC001B685B6C019308BD4002030008B5024B0D
:1045BC001B68DB6B019308BD4402030008B5024B7A
:1045CC001B681B68019308BD1C02030008B5024B55
:1045DC001B685B68019308BD1C02030008B5024B05
:1045EC001B689B68019308BD1C02030008B5024BB5
:1045FC001B685B6C019308BD1C0203000022406821
:10460C001146FFF7ABBF002240681146FFF7B6BF5B
:10461C0040680022FFF7AABF4068002281F0010128
:10462C00FFF794BF002340681A461946FFF786BF70
:10463C00002340681A461946FFF778BF00224068ED
:10464C001146FFF76BBF002240681146FFF756BFBB
:10465C00406800220221FFF759BF002340681A4628
:10466C00FFF744BF024B03225A60024A1A6070479C
:10467C0044E6032094600D0010B5044608462170F2
:10468C00FFF7B8FE00236360204610BD10B504464A
:10469C00006818B1FFF79AFF0023236010BD10B516
:1046AC000446FFF7F3FF204610BD000010B5094B80
:1046BC00094C022200201A60084B2060A080A071D7
:1046CC00A360FFF7DFFE2046054A0649BDE810400F
:1046DC0000F004BE58E603204CE603200000FFFF68
:1046EC0030E60320AB460D0010B5044601F094FCF7
:1046FC00013823182046834206D90278197800F82D
:10470C00011B03F80129F6E710BD70B50C46911E8C
:10471C002229054622D820466DB1B5FBF2F602FBE4
:10472C001655E9B2092D94BF30315731C9B200F892
:10473C00011B3546F0E7024623443021934202D94F
:10474C0002F8011BFAE71A1A834238BF0022002331
:10475C0083542046FFF7C8FF204670BD0020FCE7BD
:10476C0038B5031E0C4615460EDAB3F1004F4FF068
:10477C002D0214BF5842184601230A702A461944C8
:10478C00FFF7C3FF204638BD0123F9E72DE9F047B9
:10479C0057EC106B80460C4610EE100A00220023DA
:1047AC00394601F0D3F928B107F100431F462D23F8
:1047BC0004F8013B00234FF001090A22D9B28845C5
:1047CC0003D902FB09F90133F8E7484600F0E2FE91
:1047DC0032463B4600F048FF06460F4601F016FAFB
:1047EC0005468A4600F00AFF02460B46304639461B
:1047FC0000F082FD134B002201F0BCF910B1013521
:10480C004AF1000A4A462846D317514601F0E6F908
:10481C000123154621460A22FFF777FFB8F1000F56
:10482C000DD0204601F0F8FB2E23211823540A2228
:10483C00434628460131BDE8F047FFF766BFBDE8A7
:10484C00F08700BF0000E03F10B504460068FFF79A
:10485C00BDFE204610BD10B50446006808B1FFF738
:10486C00B5FE0023C4E90133236010BD38B50446FE
:10487C000D4600680131FFF7B1FE10B1C4E9000527
:10488C00012038BD10B50368044623B143688B4240
:10489C0001D3012010BD2046FFF7E8FF0028F9D016
:1048AC00A368002BF5D122681370F2E737B50D46DB
:1048BC00114601920446FFF7E5FF019A28B92046FC
:1048CC00FFF7C9FF204603B030BDA260294620681F
:1048DC0001F02CFB2268A3680021D154F2E70023DD
:1048EC0013B5C0E9003304468360037341B1084635
:1048FC00019101F091FB019902462046FFF7D6FF8A
:10490C00204602B010BD13B5044659B108460191BA
:10491C0001F082FB019902462046FFF7C7FF2046B3
:10492C0002B010BDFFF797FFF9E710B504468AB047
:10493C000023C4E90033A3602373084601A9FFF7E1
:10494C000FFF01A92046FFF7DEFF20460AB010BD7D
:10495C0010B504468AB000230846C4E90033A360AE
:10496C00237301A9C0B2FFF711FF01A92046FFF77D
:10497C00CAFF20460AB010BD70B505460E4609B9EF
:10498C00002070BD6AB1846814442146FFF77AFF99
:10499C000028F5D02868AB683146184401F034FB88
:1049AC00AC600120EDE78A680968FFF7E5BF10B538
:1049BC000446006808B1FFF785FC204610BD10B511
:1049CC008368044613B1032201469847204610BD64
:1049DC0010B5064C002320462360FFF76BFC2046E5
:1049EC00034A0449BDE8104000F078BC5CE60320A3
:1049FC0030E60320BB490D00F8B506460D468F186E
:104A0C000024BD420CD0336815F8011B9B6830465E
:104A1C009847031E01DB1C44F3E7002C08BF1C461F
:104A2C002046F8BD13B50446084659B1019101F072
:104A3C00F3FA23680199DB680246204602B0BDE810
:104A4C001040184702B010BD03689B68184738B572
:104A5C000D210546FFF7F8FF0A2104462846FFF70B
:104A6C00F3FF204438BD38B50546FFF7DBFF04469D
:104A7C002846FFF7ECFF204438BD30B58BB000233F
:104A8C008DF82430012A98BF0A2209AC0D46B1FBDF
:104A9C00F2F101FB125303F0FF03092B94BF3033E7
:104AAC003733DBB2AA4204F8013DEFD92146FFF7B8
:104ABC00B9FF0BB030BD002340681A461946FFF70A
:104ACC0035BD0000014B024A1A60704760E60320B6
:104ADC00C8600D00024B1A68024B1A60704700BF89
:104AEC00C8E5032064E603200021FFF7D3BC10B512
:104AFC000446FFF764FF204610BD00000348044A3B
:104B0C0004490023836000F0E9BB00BF68E6032082
:104B1C0030E60320FB4A0D00014B1860704700BFC4
:104B2C00CCE5032008B50B4B43B100F05BF90368EF
:104B3C001B699847002801DDAFF30080064B43B199
:104B4C0000F0CEF903681B699847002801DDAFF32C
:104B5C00008008BD000000000000000008B5FFF751
:104B6C00E1FFFFF797FB014B186008BDD4E703206A
:104B7C000248034A0349121A01F0D8B900F4032081
:104B8C0004F4032038620D0007B5002300931A4685
:104B9C006FF07701FFF7A0FC03B05DF804FB000099
:104BAC0007B543880A2B08D0502B0BD1094B1B6837
:104BBC004BB103B05DF804EB1847FFF7E5FF03B00A
:104BCC005DF804FB002300931A466FF07701FFF7A2
:104BDC0083FCF4E77CE6032038B5124C1248134DE5
:104BEC000021FFF703FD2368AB42114B0CBF0122E0
:104BFC0000221A7002D0FFF7BBFF2560FFF742FBC3
:104C0C00044601F0A9F90B4B13B12046AFF3008019
:104C1C0000210848FFF7CAFCBDE8384006480021CF
:104C2C00FFF750BC00F40320254B0D001E1C279AE7
:104C3C0078E6032000000000AD4B0D00704710B566
:104C4C001821044600F04FFB204610BDF0B5037D43
:104C5C00062B8DB00E4600F104074FF0000412D065
:104C6C0000F1080515F8011D0A223046FFF705FF73
:104C7C00AF42044419D0002CF4D02E213046FFF75B
:104C8C00E3FE0444EEE72F236A4639460A208DF8EA
:104C9C000040FFF72FFB684601F0BEF9336802466F
:104CAC00DB68694630469847044620460DB0F0BD97
:104CBC0010B5054B0446112240F8043B002101F0CD
:104CCC0043F9204610BD00BFF0600D000346074AB3
:104CDC0010B543F8042B01F1100251F8044B43F8C2
:104CEC00044B9142F9D10A781A7010BDF0600D0096
:104CFC0010B59DF8084044EA032343EA024242EA15
:104D0C00016104234160037510BD000013B5054B10
:104D1C000360CB7800938B784A780978FFF7E8FF2B
:104D2C0002B010BDF0600D0041747047704708B5BB
:104D3C000021007CFFF78EFB40EAE07008BD08B54F
:104D4C000121007CFFF786FB40EAE07008BD08B546
:104D5C00007CFFF777FB20EAE07008BD08B5007C0B
:104D6C00FFF768FB20EAE07008BD13B50446007C31
:104D7C000191FFF767FB0028019901DC607C20B1F1
:104D8C00207CFFF76FFB20EAE07002B010BD007CC6
:104D9C00FFF770BB10B51421044600F0A4FA2046AE
:104DAC0010BD000010B54FF47A730446084600217C
:104DBC00C4E90113044B236001232074637411466E
:104DCC00FFF728FB204610BD04610D00007C00227B
:104DDC00FFF728BB10B514220446002101F0B4F8EB
:104DEC00204610BD10B5104C88B003A8FFF7F2FF99
:104DFC002178BFF35B8F11F0010111D12046019195
:104E0C00FFF745F9019958B103AA0848FFF7CAFF03
:104E1C002046FFF741F9064A0649044800F05EFABD
:104E2C00024808B010BD00BF80E6032084E60320D2
:104E3C0030E60320394D0D0070474174704708B5BA
:104E4C00007CFFF797FA20EAE07008BD08B5007CFB
:104E5C00FFF768FA20EAE07008BD08B5007CFFF7A0
:104E6C0071FA40EAE07008BD08B5007CFFF762FA01
:104E7C0040EAE07008BD007CFFF76CBA37B5457CA2
:104E8C0004462DB1207C03B0BDE83040FFF742BA98
:104E9C00007C0191FFF76EFA00280199F2DC28469C
:104EAC0003B030BD10B51421044600F01CFA2046A6
:104EBC0010BD000010B54FF0000C0446084611461A
:104ECC004FF47A72C4E901C2044A226001222074B0
:104EDC0062741A46FFF716FA204610BD34610D00B5
:104EEC0013B50E4C2178BFF35B8F11F0010112D179
:104EFC0020460191FFF7CBF8019960B1084A094BA4
:104F0C000948FFF7D7FF2046FFF7C6F8074A0849BC
:104F1C00054800F0E3F9044802B010BD98E6032000
:104F2C009CE6032020E70320A4E7032030E60320BF
:104F3C00454E0D007047F8B5064615460C468F18C1
:104F4C00BC4206D0336814F8011B9B683046984766
:104F5C00F6E72846F8BD007C0022FFF713BA007C68
:104F6C000021FFF717BA007C0021FFF71BBA007C69
:104F7C000021FFF71FBA007C0021FFF723BA10B500
:104F8C001421044600F0AFF9204610BD10B54FF4C3
:104F9C007A73044608460021C4E90113034B2360CD
:104FAC0020741146FFF71EFA204610BD64610D00F7
:104FBC00002240681146FFF7B1BA00224068114642
:104FCC00FFF7CCBA002240681146FFF7D7BA406809
:104FDC000022FFF7CBBA4068002281F00101FFF7F5
:104FEC00B5BA002340681A461946FFF7A7BA002243
:104FFC0040681146FFF782BA406800220221FFF791
:10500C0085BA002340681A46FFF770BA024B042297
:10501C005A60024A1A607047B8E703208C610D0091
:10502C00002340681A46FFF761BA4068002202214B
:10503C00FFF76CBA002240681146FFF75FBA0022F6
:10504C0040681146FFF76ABA002340681A461946B1
:10505C00FFF76CBA002340681A461946FFF76EBA80
:10506C0040680021FFF792BA40680021FFF796BA1A
:10507C004068002281F00101FFF768BA4068002205
:10508C00FFF774BA002240681146FFF777BA002286
:10509C0040681146FFF762BA2DE9F043002495B041
:1050AC0016460D460746FFF703FE214618220EA8AA
:1050BC00009400F049FF4023CDE90C3421466B46A7
:1050CC000CAA3046FFF7BEF8044600284CD1024625
:1050DC0001216868FFF722FA02218046224668689F
:1050EC00FFF71CFA009E81462146002E3CD0002979
:1050FC003AD17368022B03D00A2B11D0F669F4E76E
:10510C00B8F1000F0AD0716906A8043107ADFFF79A
:10511C00FDFD0FCD3C1D0FC42B6823704146EDE700
:10512C00B9F1000F01D14946E8E77469102201A8D2
:10513C0000F00AFF06238DF8143001AD04F10803CA
:10514C001834186859682A4603C20833A342154616
:10515C00F7D101A906A807ADFFF7B8FD0FCD3C1D8F
:10516C000FC42B682370DEE70098FFF763F838460E
:10517C0015B0BDE8F0830000024B034A1A60002210
:10518C005A607047C0E70320C8610D00232813B58F
:10519C0002D9002002B010BDA0F10B03022B1AD8CB
:1051AC00174C2178BFF35B8F11F001010BD1204616
:1051BC000191FEF76CFF019928B11248FFF75CFAD8
:1051CC002046FEF769FF0F4B1878FFF71BF90028F4
:1051DC00DFD10120DEE7012809D800F057F80021C3
:1051EC00007CFFF7F7F880F00100C0B2D2E7093875
:1051FC000128EED8FFF774FE007CFFF7B3F8F2E756
:10520C00C8E70320CCE70320232838B504460D4615
:10521C000AD8FF2908D0FFF7B9FF28B12946204644
:10522C00BDE83840FFF716B838BD38B504460D4612
:10523C00FFF718F8FF2810D0062804D84D2323FABE
:10524C0000F0C30709D42046FFF7A0FF28B1294678
:10525C002046BDE83840FFF70DB838BD38B50023FF
:10526C00202543801423044603808560056106498C
:10527C00284600F03AF804496060284600F035F8FA
:10528C00E060204638BD00BFFC610D0030B50F4D0D
:10529C002978BFF35B8F11F0010487B013D1284636
:1052AC00FEF7F5FE78B101A8FFF7D8FF01AA214659
:1052BC000748FFF76BFE2846FEF7EEFE054A064947
:1052CC00034800F00BF8024807B030BDD8E70320C4
:1052DC00DCE7032030E60320414F0D000B4601466E
:1052EC00184600F015BEFEF7D0BEFEF7CCBE00008F
:1052FC0081F0004102E000BF83F0004330B54FEA7B
:10530C0041044FEA430594EA050F08BF90EA020FE7
:10531C001FBF54EA000C55EA020C7FEA645C7FEA7A
:10532C00655C00F0E2804FEA5454D4EB5555B8BF9D
:10533C006D420CDD2C4480EA020281EA030382EA0E
:10534C00000083EA010180EA020281EA0303362DA0
:10535C0088BF30BD11F0004F4FEA01314FF4801C73
:10536C004CEA113102D0404261EB410113F0004F85
:10537C004FEA03334CEA133302D0524263EB43033C
:10538C0094EA050F00F0A780A4F10104D5F1200EDA
:10539C000DDB02FA0EFC22FA05F2801841F1000135
:1053AC0003FA0EF2801843FA05F359410EE0A5F109
:1053BC0020050EF1200E012A03FA0EFC28BF4CF03A
:1053CC00020C43FA05F3C01851EBE37101F00045F0
:1053DC0007D54FF0000EDCF1000C7EEB00006EEBFD
:1053EC000101B1F5801F1BD3B1F5001F0CD3490887
:1053FC005FEA30004FEA3C0C04F101044FEA4452DE
:10540C0012F5800F80F09A80BCF1004F08BF5FEA64
:10541C00500C50F1000041EB045141EA050130BD44
:10542C005FEA4C0C404141EB0101013C28BFB1F556
:10543C00801FE9D291F0000F04BF01460020B1FAA1
:10544C0081F308BF2033A3F10B03B3F120020CDA74
:10545C000C3208DD02F1140CC2F10C0201FA0CF052
:10546C0021FA02F10CE002F11402D8BFC2F1200CB7
:10547C0001FA02F120FA0CFCDCBF41EA0C0190406D
:10548C00E41AA2BF01EB0451294330BD6FEA0404B6
:10549C001F3C1CDA0C340EDC04F11404C4F12002A1
:1054AC0020FA04F001FA02F340EA030021FA04F3B3
:1054BC0045EA030130BDC4F10C04C4F1200220FA0A
:1054CC0002F001FA04F340EA0300294630BD21FA48
:1054DC0004F0294630BD94F0000F83F4801306BF0E
:1054EC0081F480110134013D4EE77FEA645C18BF02
:1054FC007FEA655C29D094EA050F08BF90EA020F99
:10550C0005D054EA000C04BF1946104630BD91EA90
:10551C00030F1EBF0021002030BD5FEA545C05D193
:10552C004000494128BF41F0004130BD14F58004D2
:10553C003CBF01F5801130BD01F0004545F0FE4146
:10554C0041F470014FF0000030BD7FEA645C1ABF7B
:10555C00194610467FEA655C1CBF0B46024650EAB2
:10556C00013406BF52EA033591EA030F41F40021DE
:10557C0030BD00BF90F0000F04BF0021704730B564
:10558C004FF4806404F132044FF000054FF0000139
:10559C0050E700BF90F0000F04BF0021704730B5FA
:1055AC004FF4806404F1320410F0004548BF4042CF
:1055BC004FF000013EE700BF42004FEAE2014FEA24
:1055CC0031014FEA02701FBF12F07F4393F07F4FFF
:1055DC0081F06051704732F07F4208BF704793F002
:1055EC007F4F04BF41F40021704730B54FF4607415
:1055FC0001F0004521F000411CE700BF50EA010218
:10560C0008BF704730B54FF000050AE050EA0102C0
:10561C0008BF704730B511F0004502D5404261EB30
:10562C0041014FF4806404F132045FEA915C3FF471
:10563C00D8AE4FF003025FEADC0C18BF03325FEA0E
:10564C00DC0C18BF033202EBDC02C2F1200300FABF
:10565C0003FC20FA02F001FA03FE40EA0E0021FAE4
:10566C0002F11444BDE600BF70B54FF0FF0C4CF4D2
:10567C00E06C1CEA11541DBF1CEA135594EA0C0F84
:10568C0095EA0C0F00F0DEF82C4481EA030621EABF
:10569C004C5123EA4C5350EA013518BF52EA0335FA
:1056AC0041F4801143F4801338D0A0FB02CE4FF0AC
:1056BC000005E1FB02E506F00042E0FB03E54FF0DC
:1056CC000006E1FB03569CF0000F18BF4EF0010ED4
:1056DC00A4F1FF04B6F5007F64F5407404D25FEAD0
:1056EC004E0E6D4146EB060642EAC62141EA555183
:1056FC004FEAC52040EA5E504FEACE2EB4F1FD0CC5
:10570C0088BFBCF5E06F1ED8BEF1004F08BF5FEA42
:10571C00500E50F1000041EB045170BD06F00046F4
:10572C0046EA010140EA020081EA0301B4EB5C04A1
:10573C00C2BFD4EB0C0541EA045170BD41F4801199
:10574C004FF0000E013C00F3AB8014F1360FDEBFBE
:10575C00002001F0004170BDC4F10004203C35DA9A
:10576C000C341BDC04F11404C4F1200500FA05F31D
:10577C0020FA04F001FA05F240EA020001F00042BE
:10578C0021F0004110EBD37021FA04F642EB060134
:10579C005EEA430E08BF20EAD37070BDC4F10C045E
:1057AC00C4F1200500FA04F320FA05F001FA04F222
:1057BC0040EA020001F0004110EBD37041F100010E
:1057CC005EEA430E08BF20EAD37070BDC4F1200519
:1057DC0000FA05F24EEA020E20FA04F301FA05F281
:1057EC0043EA020321FA04F001F0004121FA04F229
:1057FC0020EA020000EBD3705EEA430E08BF20EAF9
:10580C00D37070BD94F0000F0FD101F00046400032
:10581C0041EB010111F4801F08BF013CF7D041EAB4
:10582C00060195F0000F18BF704703F000465200B8
:10583C0043EB030313F4801F08BF013DF7D043EA89
:10584C000603704794EA0C0F0CEA135518BF95EA3F
:10585C000C0F0CD050EA410618BF52EA4306D1D1C6
:10586C0081EA030101F000414FF0000070BD50EAE5
:10587C00410606BF1046194652EA430619D094EA6F
:10588C000C0F02D150EA013613D195EA0C0F05D159
:10589C0052EA03361CBF104619460AD181EA0301AD
:1058AC0001F0004141F0FE4141F470014FF0000065
:1058BC0070BD41F0FE4141F4780170BD70B54FF000
:1058CC00FF0C4CF4E06C1CEA11541DBF1CEA135580
:1058DC0094EA0C0F95EA0C0F00F0A7F8A4EB050462
:1058EC0081EA030E52EA03354FEA013100F0888059
:1058FC004FEA03334FF0805545EA131343EA126322
:10590C004FEA022245EA111545EA10654FEA0026D6
:10591C000EF000419D4208BF964244F1FD0404F58F
:10592C00407402D25B084FEA3202B61A65EB0305EB
:10593C005B084FEA32024FF480104FF4002CB6EBA8
:10594C00020E75EB030E22BFB61A754640EA0C0028
:10595C005B084FEA3202B6EB020E75EB030E22BF68
:10596C00B61A754640EA5C005B084FEA3202B6EBA9
:10597C00020E75EB030E22BFB61A754640EA9C0068
:10598C005B084FEA3202B6EB020E75EB030E22BF38
:10599C00B61A754640EADC0055EA060E18D04FEAF6
:1059AC00051545EA16754FEA06164FEAC30343EA96
:1059BC0052734FEAC2025FEA1C1CC0D111F4801F63
:1059CC000BD141EA00014FF000004FF0004CB6E75C
:1059DC0011F4801F04BF01430020B4F1FD0C88BFFB
:1059EC00BCF5E06F3FF6AFAEB5EB030C04BFB6EB06
:1059FC00020C5FEA500C50F1000041EB045170BDF9
:105A0C000EF0004E4EEA113114EB5C04C2BFD4EB25
:105A1C000C0541EA045170BD41F480114FF0000EA9
:105A2C00013C90E645EA060E8DE60CEA135594EA25
:105A3C000C0F08BF95EA0C0F3FF43BAF94EA0C0F28
:105A4C000AD150EA01347FF434AF95EA0C0F7FF49D
:105A5C0025AF104619462CE795EA0C0F06D152EAF1
:105A6C0003353FF4FDAE1046194622E750EA4106D5
:105A7C0018BF52EA43067FF4C5AE50EA41047FF4E6
:105A8C000DAF52EA43057FF4EBAE12E74FF0FF3C4B
:105A9C0006E000BF4FF0010C02E000BF4FF0010C1C
:105AAC004DF804CD4FEA410C7FEA6C5C4FEA430C95
:105ABC0018BF7FEA6C5C1BD001B050EA410C0CBFE4
:105ACC0052EA430C91EA030F02BF90EA020F002046
:105ADC00704710F1000F91EA030F58BF994208BFAD
:105AEC0090422CBFD8176FEAE37040F0010070476A
:105AFC004FEA410C7FEA6C5C02D150EA013C07D1C1
:105B0C004FEA430C7FEA6C5CD6D152EA033CD3D00B
:105B1C005DF8040B704700BF8446104662468C4605
:105B2C001946634600E000BF01B5FFF7B7FF002838
:105B3C0048BF10F1000F01BD4DF808EDFFF7F4FF61
:105B4C000CBF012000205DF808FB00BF4DF808EDEC
:105B5C00FFF7EAFF34BF012000205DF808FB00BF0F
:105B6C004DF808EDFFF7E0FF94BF012000205DF831
:105B7C0008FB00BF4DF808EDFFF7CEFF94BF0120E6
:105B8C0000205DF808FB00BF4DF808EDFFF7C4FFDF
:105B9C0034BF012000205DF808FB00BF4A0011D281
:105BAC0012F5001211D20DD56FF47873B3EB62526B
:105BBC000ED44FEAC12343F0004343EA505323FA77
:105BCC0002F070474FF00000704750EA013002D1EC
:105BDC004FF0FF3070474FF00000704753B94AB98F
:105BEC00002908BF00281CBF4FF0FF314FF0FF30D9
:105BFC0000F08CB9ADF1080C6DE904CE00F024F87E
:105C0C00DDF804E0DDE9022304B07047D0B50C4B9D
:105C1C00002206460F46FFF727FDFFF7BFFF04469D
:105C2C00FFF7A8FC074B0022FFF71EFD02460B46B0
:105C3C0030463946FFF760FBFFF7B0FF2146D0BD79
:105C4C000000F03D0000F0412DE9F047089D0446AE
:105C5C008C46002B40F083808A42174647D9B2FA13
:105C6C0082F242B1C2F1200024FA00F09140974038
:105C7C0040EA010C94404FEA1748230CBCFBF8F6A1
:105C8C001FFA87FE08FB16C143EA014306FB0EF11F
:105C9C00994209D9FB1806F1FF3080F0198199421D
:105CAC0040F21681023E3B445B1AA4B2B3FBF8F0FF
:105CBC0008FB103344EA034400FB0EFEA64509D949
:105CCC003C1900F1FF3380F00581A64540F20281BA
:105CDC0002383C4440EA0640A4EB0E0400261DB1F9
:105CEC00D4400023C5E900433146BDE8F08702B932
:105CFC00FFDEB2FA82F2002A50D1CB1B4FEA174ECC
:105D0C001FFA87F80126B3FBFEFC210C0EFB1C339B
:105D1C0041EA034108FB0CF38B4207D979180CF1CB
:105D2C00FF3002D28B4200F2E9808446C91AA3B23A
:105D3C00B1FBFEF00EFB101143EA014408FB00F826
:105D4C00A04507D93C1900F1FF3302D2A04500F25F
:105D5C00D9801846A4EB080440EA0C40BFE78B42FC
:105D6C0009D9002D00F0B1800026C5E900013046AC
:105D7C003146BDE8F087B3FA83F6002E4AD18B4248
:105D8C0002D3824200F2B880841A61EB0301012035
:105D9C008C46002DA8D0C5E9004CA5E7C2F1200324
:105DAC0020FA03F6974001FA02F04FEA174ED94059
:105DBC003043030CB1FBFEF61FFA87F80EFB1611ED
:105DCC0043EA014306FB08F1994204FA02F409D9AB
:105DDC00FB1806F1FF3C80F08D80994240F28A80DE
:105DEC00023E3B445B1A81B2B3FBFEF00EFB103358
:105DFC0041EA034100FB08F38B4207D9791800F103
:105E0C00FF3C73D28B4271D902383944CB1A40EA29
:105E1C00064678E7C6F1200C03FA06F422FA0CF3D6
:105E2C001C4320FA0CF701FA06F34FEA144E21FA40
:105E3C000CF11F433B0CB1FBFEF91FFA84F80EFB6F
:105E4C00191143EA014109FB08FA8A4502FA06F2E4
:105E5C0000FA06F308D9611809F1FF3048D28A45D7
:105E6C0046D9A9F102092144A1EB0A01BFB2B1FB49
:105E7C00FEF00EFB101147EA014700FB08F8B8458D
:105E8C0007D9E71900F1FF312ED2B8452CD90238C9
:105E9C00274440EA0940A7EB0807A0FB02894F45BD
:105EAC00C64649461AD317D05DB1B3EB0E0267EB69
:105EBC00010707FA0CFCF2404CEA0202F740C5E974
:105ECC00002700263146BDE8F0872E4628460BE712
:105EDC000646E9E61846FDE64345E5D2B8EB020E68
:105EEC0069EB04010138DFE70846D2E760468DE72D
:105EFC008146B9E7664675E730464AE7ACF1020CD5
:105F0C00394413E702383C4424E700BF704700BF14
:105F1C0010B5054C13462CB10A4601460220AFF3CE
:105F2C00008010BD2046FCE7000000000A449142AE
:105F3C0000F1FF3300D1704710B511F8014B03F895
:105F4C00014F9142F9D110BD02440346934200D156
:105F5C00704703F8011BF9E738B50D4B1D68AB6BA7
:105F6C0004467BB91820FEF729FB0A4A0A4BA863A2
:105F7C00C0E90023094B83600B238381012200239A
:105F8C00C0E90423AB6B00221C615A6138BD00BF11
:105F9C00CCE503200E33CDAB34126DE6ECDE050000
:105FAC00134B10B51C68A36B7BB91820FEF706FBCE
:105FBC00104A114BA063C0E90023104B83600B23E4
:105FCC00838101220023C0E90423A16B0C480A69D8
:105FDC004B690C4C504304FB0300A2FB04345A1CC9
:105FEC00044444F10000C1E9042020F0004010BD3D
:105FFC00CCE503200E33CDAB34126DE6ECDE0500A0
:10600C002DF451582D7F954C034611F8012B03F8B4
:10601C00012B002AF9D17047034613F8012B002AF3
:10602C00FBD1181A013870471D400D0059400D0066
:10603C0081400D0085400D00000000005468726521
:10604C0061642031206F75747075743A2000546847
:10605C00726561642032206F75747075743A20001B
:10606C006D7954687265616431006D79546872653C
:10607C00616432006D7954687265616433000000AC
:10608C00000000000000000067460D005D460D009A
:10609C0053460D0049460D003D460D0031460D009E
:1060AC006D500D0075500D0025460D001D460D0060
:1060BC0013460D0009460D00A5500D0061707000CF
:1060CC0025592D256D2D25645425483A254D3A2505
:1060DC0053257A0061736374696D650000000000DC
:1060EC0000000000594C0D00494C0D004B4C0D00AC
:1060FC000000000000000000394D0D00A14D0D0006
:10610C00774D0D00054A0D00694D0D003B4D0D00FE
:10611C004B4D0D009B4D0D005B4D0D00354D0D0095
:10612C000000000000000000454E0D00B14E0D00B7
:10613C00894E0D00054A0D00594E0D00754E0D008F
:10614C00674E0D00834E0D00474E0D004B4E0D005B
:10615C000000000000000000414F0D008B4F0D00AF
:10616C00634F0D00434F0D006B4F0D00734F0D002F
:10617C007B4F0D00834F0D0000000000000000005D
:10618C000F500D0005500D00FB4F0D00BD4F0D00C5
:10619C00C34A0D00EF4F0D006D500D0075500D00F2
:1061AC00E34F0D00DB4F0D00D14F0D00C74F0D001D
:1061BC00A5500D0000000000000000002D500D0047
:1061CC0037500D0041500D004B500D0055500D0037
:1061DC0061500D006D500D0075500D007D500D007F
:1061EC0089500D0091500D009B500D00A5500D00D5
:1061FC000000000039420D0071460D00B9460D003B
:10620C00DD490D00D14A0D00E14A0D00094B0D008E
:10621C0019500D0085510D00000000000000000019
:04622C00000000006E
:0862300024FAFF7F01000000C9
:046238000000000062
:10623C00E0600D00D0E5032000000000000000002D
:10624C000000000000000000000000000000000042
:10625C000000000000000000000000000000000032
:10626C000000000000000000000000000000000022
:10627C000000000000000000000000000000000012
:10628C000000000000000000000000000000000002
:08629C000000000000000000FA
:1062A400FFFFFFFF00000102030405060708090AB7
:1062B4000B0C0D0E0F101112131415161718191AB2
:0862C4001B1C1D1E1F202800F9
:0462CC0078563412BA
:04000003D000401CCD
:00000001FF
